:040000003EEF0BF0D4
:1010000000002A50D8A407EF08F009EF08F0C5EF58
:1010100008F0000E2E6EDAEF08F02A50D96EDA6A68
:10102000DF50070B2C6E2C462C462C4637502C18C4
:10103000C70B2C18376E2A50D96EDA6ADF30E832C7
:10104000E832070B2C6E37502C18F80B2C18376E23
:101050002A50D96EDA6ADFAC02D0378E01D0379EC3
:10106000379C2A50D96EDA6A010ED926DF50070B59
:101070002C6E2C462C462C4638502C18C70B2C189E
:10108000386E2A50D96EDA6A010ED926DF30E8327E
:10109000E832070B2C6E38502C18F80B2C18386ED1
:1010A0002A50D96EDA6A010ED926DFAC02D0388E0A
:1010B00001D0389E389C370E236EDCEC08F0380ED9
:1010C000236EDCEC08F02E6EDAEF08F02A50D96EB1
:1010D000DA6A020ED926DF50070B2C6E2C462C46FE
:1010E0002C4635502C18C70B2C18356E2A50D96E4B
:1010F000DA6A020ED926DF30E832E832070B2C6EAE
:1011000035502C18F80B2C18356E2A50D96EDA6A27
:10111000020ED926DFAC02D0358E01D0359E359C2B
:101120002A50D96EDA6A030ED926DF50070B2C6ECF
:101130002C462C462C4636502C18C70B2C18366ED5
:101140002A50D96EDA6A030ED926DF30E832E83247
:10115000070B2C6E36502C18F80B2C18366E2A50B4
:10116000D96EDA6A030ED926DFAC02D0368E01D0F2
:10117000369E369C350E236EDCEC08F0360E236E60
:10118000DCEC08F02E6EDAEF08F02B502C6E2D6A96
:101190002D50000AD8B4CFEF08F009EF08F02C501A
:1011A000000AD8B40DEF08F0010AD8B466EF08F0D1
:1011B00009EF08F02E501200010E296E2350D8B40A
:1011C000E4EF08F0E6EF08F004EF09F02350D96EE1
:1011D000DA6ADF30E832E832070B246E080E24604A
:1011E000F4EF08F0F6EF08F004EF09F02350D96EA1
:1011F000DA6ADF50070B246E050E246402EF09F053
:1012000004EF09F05BEF09F0000E296E7BEF09F0A7
:101210002350D96EDA6ADF30E832E832070B246EE9
:10122000010E256E242A17EF09F0D8902536242EBA
:1012300015EF09F02550FF0A266E2350D96EDA6AA1
:10124000DF50070B020DF3500B0FD96EDA6ADECFB9
:1012500027F0DDCF28F027C0D9FF28C0DAFF2650BD
:10126000DF167BEF09F02350D96EDA6ADF30E832FF
:10127000E832070B246E010E256E242A42EF09F096
:10128000D8902536242E40EF09F02350D96EDA6A23
:10129000DF50070B020DF3500B0FD96EDA6ADECF69
:1012A00026F0DDCF27F026C0D9FF27C0DAFF255072
:1012B000DF1204EF09F02350D96EDA6ADFBC63EF66
:1012C00009F066EF09F0010E67EF09F0000E246ED9
:1012D000256A2550000AD8B470EF09F004EF09F030
:1012E0002450000AD8B408EF09F0010AD8B433EF4B
:1012F00009F004EF09F029501200010E2A6E235064
:10130000D8B485EF09F087EF09F0A5EF09F0235075
:10131000D96EDA6ADF30E832E832070B256E080E44
:10132000256095EF09F097EF09F0A5EF09F023503C
:10133000D96EDA6ADF50070B256E050E2564A3EF20
:1013400009F0A5EF09F0FCEF09F0000E2A6E11EF8D
:101350000AF02350D96EDA6ADF30E832E832070B40
:10136000256E010E266E252AB8EF09F0D890263694
:10137000252EB6EF09F02650FF0A276E2350D96EAE
:10138000DA6ADF50070B020DF350010FD96EDA6AEB
:10139000DECF28F0DDCF29F028C0D9FF29C0DAFF41
:1013A0002750DF1611EF0AF02350D96EDA6ADF30CA
:1013B000E832E832070B256E010E266E252AE3EF90
:1013C00009F0D8902636252EE1EF09F02350D96E8A
:1013D000DA6ADF50070B020DF350010FD96EDA6A9B
:1013E000DECF27F0DDCF28F027C0D9FF28C0DAFFF5
:1013F0002650DF12A5EF09F02450256E266A2650EC
:10140000000AD8B406EF0AF0A5EF09F02550000A4B
:10141000D8B4A9EF09F0010AD8B4D4EF09F0A5EFC8
:1014200009F02A5012001F0E2A6E000E2B6E01ECDE
:1014300008F0326E1F0E2A6E010E2B6E01EC08F0C2
:10144000326E1F0E2B6E000E2C6EB8EC0AF0326E50
:101450001F0E2B6E010E2C6EB8EC0AF0326E150EBC
:10146000316E4B0E306EBE0EE82EFED7302EFCD7FE
:10147000312EFAD700D01F0E2B6E000E2C6E75EC9D
:101480000AF0150E316E4B0E306EBE0EE82EFED7F2
:10149000302EFCD7312EFAD700D01F0E2B6E000E47
:1014A0002C6EFBEC0AF0150E316E4B0E306EBE0E3C
:1014B000E82EFED7302EFCD7312EFAD700D01F0EE3
:1014C0002B6E000E2C6E75EC0AF0150E316E4B0E65
:1014D000306EBE0EE82EFED7302EFCD7312EFAD756
:1014E00000D021EF0AF000EF00F02B50D8A47BEFE2
:1014F0000AF07DEF0AF0A1EF0AF0000E2F6EB6EFB2
:101500000AF0370E236E000E246E7DEC09F02F6E6C
:10151000380E236E000E246E7DEC09F02F6EB6EFB0
:101520000AF0350E236E000E246E7DEC09F02F6E4E
:10153000360E236E000E246E7DEC09F02F6EB6EF92
:101540000AF02C502D6E2E6A2E50000AD8B4ABEF44
:101550000AF07DEF0AF02D50000AD8B481EF0AF0AE
:10156000010AD8B491EF0AF07DEF0AF02F50120073
:101570002B50D8A4BEEF0AF0C0EF0AF0E4EF0AF057
:10158000000E2F6EF9EF0AF0370E236E010E246E57
:101590007DEC09F02F6E380E236E000E246E7DEC6C
:1015A00009F02F6EF9EF0AF0350E236E010E246E4E
:1015B0007DEC09F02F6E360E236E000E246E7DEC4E
:1015C00009F02F6EF9EF0AF02C502D6E2E6A2E5076
:1015D000000AD8B4EEEF0AF0C0EF0AF02D50000A6E
:1015E000D8B4C4EF0AF0010AD8B4D4EF0AF0C0EFBF
:1015F0000AF02F5012002B50D8A401EF0BF003EF8C
:101600000BF027EF0BF0000E2F6E3CEF0BF0370EB8
:10161000236E000E246E7DEC09F02F6E380E236EC3
:10162000010E246E7DEC09F02F6E3CEF0BF0350EB1
:10163000236E000E246E7DEC09F02F6E360E236EA5
:10164000010E246E7DEC09F02F6E3CEF0BF02C5058
:101650002D6E2E6A2E50000AD8B431EF0BF003EF36
:101660000BF02D50000AD8B407EF0BF0010AD8B4E4
:1016700017EF0BF003EF0BF02F501200B20EF66EC7
:10168000160EF76E000EF86E00EE01F010EE22F06E
:101690000900F5CFEEFFE550E150FAE1386A376A0C
:1016A000366A356A346A336A000EF86E000113EF49
:1016B0000AF0890F8A0F8B0F00000000920F930F22
:1016C000940F00000000800F810F820F10110000A6
:0416D00010111213D0
:020000040030CA
:0E000000FF02091EFF8181FF0FC00FE00F40BD
:00000001FF
